:020000020000FC
:100000000FEF07BB01BB00E00ABB04BB08E00EBF5B
:100010000FE50DBF3BD0682E39D0782E862D10E02D
:1000200025E01AD03B2E2A2E872D122D232D14D0F9
:100030005B2E4A2EC62CC718C39400E010E036D0C1
:100040004D9313951C15D9F703950C15B9F7142D7D
:10005000252D8C2D0ED0FFCFA12FB22F00E0889F31
:100060000F920E9446008D9303950F900015C1F7E3
:100070000895A12FB22F00E0889F0F928D910E94CA
:100080004E0003950F900015C1F70895909A989B24
:10009000FDCF89B39899FDCF90980895919A989B38
:1000A000FDCF88BB9899FDCF9198089540E030E04E
:1000B00050E0E22DF32DC0E0D5E0852F800F689E43
:1000C000010EC00D60E0799191917902400D511DB2
:0E00D00063956715C1F75395571569F70895A5
:00000001FF
